:1000000012C019C018C017C016C015C014C013C044
:1000100012C011C010C00FC00EC00DC00CC00BC06C
:100020000AC009C008C011241FBECFE5D4E0DEBF5E
:10003000CDBF02D047C0E4CF8FEF81BB14BA8EE1B1
:1000400087BB60E1FEE1E2E172E083B390E023B3BD
:10005000422F50E04870507022B3209522BB9C0183
:100060002170307080FD03C04830510521F462BB1F
:100070002115310531F44115510509F4F8BB20E093
:1000800030E02130310539F44115510521F468BBC8
:1000900062BB20E030E080E04830510509F481E0A7
:1000A0002115310529F4882319F078BB62BBCDCF27
:1000B0002130310551F6882341F2E8BB82B38095A7
:0800C00082BBC3CFF894FFCF0F
:00000001FF
